{
  "_format": "hh-sol-artifact-1",
  "contractName": "NFTMarketplace",
  "sourceName": "contracts/NFTMarketplace.sol",
  "abi": [
    {
      "inputs": [],
      "stateMutability": "nonpayable",
      "type": "constructor"
    },
    {
      "anonymous": false,
      "inputs": [
        {
          "indexed": true,
          "internalType": "address",
          "name": "owner",
          "type": "address"
        },
        {
          "indexed": true,
          "internalType": "address",
          "name": "approved",
          "type": "address"
        },
        {
          "indexed": true,
          "internalType": "uint256",
          "name": "tokenId",
          "type": "uint256"
        }
      ],
      "name": "Approval",
      "type": "event"
    },
    {
      "anonymous": false,
      "inputs": [
        {
          "indexed": true,
          "internalType": "address",
          "name": "owner",
          "type": "address"
        },
        {
          "indexed": true,
          "internalType": "address",
          "name": "operator",
          "type": "address"
        },
        {
          "indexed": false,
          "internalType": "bool",
          "name": "approved",
          "type": "bool"
        }
      ],
      "name": "ApprovalForAll",
      "type": "event"
    },
    {
      "anonymous": false,
      "inputs": [
        {
          "indexed": false,
          "internalType": "uint256",
          "name": "_fromTokenId",
          "type": "uint256"
        },
        {
          "indexed": false,
          "internalType": "uint256",
          "name": "_toTokenId",
          "type": "uint256"
        }
      ],
      "name": "BatchMetadataUpdate",
      "type": "event"
    },
    {
      "anonymous": false,
      "inputs": [
        {
          "indexed": false,
          "internalType": "uint256",
          "name": "_tokenId",
          "type": "uint256"
        }
      ],
      "name": "MetadataUpdate",
      "type": "event"
    },
    {
      "anonymous": false,
      "inputs": [
        {
          "indexed": true,
          "internalType": "address",
          "name": "previousOwner",
          "type": "address"
        },
        {
          "indexed": true,
          "internalType": "address",
          "name": "newOwner",
          "type": "address"
        }
      ],
      "name": "OwnershipTransferred",
      "type": "event"
    },
    {
      "anonymous": false,
      "inputs": [
        {
          "indexed": true,
          "internalType": "uint256",
          "name": "tokenId",
          "type": "uint256"
        },
        {
          "indexed": false,
          "internalType": "address",
          "name": "owner",
          "type": "address"
        },
        {
          "indexed": false,
          "internalType": "address",
          "name": "seller",
          "type": "address"
        },
        {
          "indexed": false,
          "internalType": "uint256",
          "name": "price",
          "type": "uint256"
        },
        {
          "indexed": false,
          "internalType": "bool",
          "name": "currentlyListed",
          "type": "bool"
        }
      ],
      "name": "TokenListedSuccess",
      "type": "event"
    },
    {
      "anonymous": false,
      "inputs": [
        {
          "indexed": true,
          "internalType": "address",
          "name": "from",
          "type": "address"
        },
        {
          "indexed": true,
          "internalType": "address",
          "name": "to",
          "type": "address"
        },
        {
          "indexed": true,
          "internalType": "uint256",
          "name": "tokenId",
          "type": "uint256"
        }
      ],
      "name": "Transfer",
      "type": "event"
    },
    {
      "inputs": [
        {
          "internalType": "address",
          "name": "to",
          "type": "address"
        },
        {
          "internalType": "uint256",
          "name": "tokenId",
          "type": "uint256"
        }
      ],
      "name": "approve",
      "outputs": [],
      "stateMutability": "nonpayable",
      "type": "function"
    },
    {
      "inputs": [
        {
          "internalType": "address",
          "name": "owner",
          "type": "address"
        }
      ],
      "name": "balanceOf",
      "outputs": [
        {
          "internalType": "uint256",
          "name": "",
          "type": "uint256"
        }
      ],
      "stateMutability": "view",
      "type": "function"
    },
    {
      "inputs": [
        {
          "internalType": "string",
          "name": "tokenURI",
          "type": "string"
        },
        {
          "internalType": "uint256",
          "name": "price",
          "type": "uint256"
        }
      ],
      "name": "createToken",
      "outputs": [
        {
          "internalType": "uint256",
          "name": "",
          "type": "uint256"
        }
      ],
      "stateMutability": "payable",
      "type": "function"
    },
    {
      "inputs": [
        {
          "internalType": "uint256",
          "name": "tokenId",
          "type": "uint256"
        }
      ],
      "name": "executeSale",
      "outputs": [],
      "stateMutability": "payable",
      "type": "function"
    },
    {
      "inputs": [],
      "name": "getAllNFTs",
      "outputs": [
        {
          "components": [
            {
              "internalType": "uint256",
              "name": "tokenId",
              "type": "uint256"
            },
            {
              "internalType": "address payable",
              "name": "owner",
              "type": "address"
            },
            {
              "internalType": "address payable",
              "name": "seller",
              "type": "address"
            },
            {
              "internalType": "uint256",
              "name": "price",
              "type": "uint256"
            },
            {
              "internalType": "bool",
              "name": "curentlyListed",
              "type": "bool"
            }
          ],
          "internalType": "struct NFTMarketplace.ListedToken[]",
          "name": "",
          "type": "tuple[]"
        }
      ],
      "stateMutability": "view",
      "type": "function"
    },
    {
      "inputs": [
        {
          "internalType": "uint256",
          "name": "tokenId",
          "type": "uint256"
        }
      ],
      "name": "getApproved",
      "outputs": [
        {
          "internalType": "address",
          "name": "",
          "type": "address"
        }
      ],
      "stateMutability": "view",
      "type": "function"
    },
    {
      "inputs": [],
      "name": "getCurrentToken",
      "outputs": [
        {
          "components": [
            {
              "internalType": "uint256",
              "name": "tokenId",
              "type": "uint256"
            },
            {
              "internalType": "address payable",
              "name": "owner",
              "type": "address"
            },
            {
              "internalType": "address payable",
              "name": "seller",
              "type": "address"
            },
            {
              "internalType": "uint256",
              "name": "price",
              "type": "uint256"
            },
            {
              "internalType": "bool",
              "name": "curentlyListed",
              "type": "bool"
            }
          ],
          "internalType": "struct NFTMarketplace.ListedToken",
          "name": "",
          "type": "tuple"
        }
      ],
      "stateMutability": "view",
      "type": "function"
    },
    {
      "inputs": [],
      "name": "getLatestIdToListedToken",
      "outputs": [
        {
          "internalType": "uint256",
          "name": "",
          "type": "uint256"
        }
      ],
      "stateMutability": "view",
      "type": "function"
    },
    {
      "inputs": [],
      "name": "getListPrice",
      "outputs": [
        {
          "internalType": "uint256",
          "name": "",
          "type": "uint256"
        }
      ],
      "stateMutability": "view",
      "type": "function"
    },
    {
      "inputs": [
        {
          "internalType": "uint256",
          "name": "_tokenId",
          "type": "uint256"
        }
      ],
      "name": "getListedTokenForId",
      "outputs": [
        {
          "components": [
            {
              "internalType": "uint256",
              "name": "tokenId",
              "type": "uint256"
            },
            {
              "internalType": "address payable",
              "name": "owner",
              "type": "address"
            },
            {
              "internalType": "address payable",
              "name": "seller",
              "type": "address"
            },
            {
              "internalType": "uint256",
              "name": "price",
              "type": "uint256"
            },
            {
              "internalType": "bool",
              "name": "curentlyListed",
              "type": "bool"
            }
          ],
          "internalType": "struct NFTMarketplace.ListedToken",
          "name": "",
          "type": "tuple"
        }
      ],
      "stateMutability": "view",
      "type": "function"
    },
    {
      "inputs": [],
      "name": "getMyNFTs",
      "outputs": [
        {
          "components": [
            {
              "internalType": "uint256",
              "name": "tokenId",
              "type": "uint256"
            },
            {
              "internalType": "address payable",
              "name": "owner",
              "type": "address"
            },
            {
              "internalType": "address payable",
              "name": "seller",
              "type": "address"
            },
            {
              "internalType": "uint256",
              "name": "price",
              "type": "uint256"
            },
            {
              "internalType": "bool",
              "name": "curentlyListed",
              "type": "bool"
            }
          ],
          "internalType": "struct NFTMarketplace.ListedToken[]",
          "name": "",
          "type": "tuple[]"
        }
      ],
      "stateMutability": "view",
      "type": "function"
    },
    {
      "inputs": [
        {
          "internalType": "address",
          "name": "owner",
          "type": "address"
        },
        {
          "internalType": "address",
          "name": "operator",
          "type": "address"
        }
      ],
      "name": "isApprovedForAll",
      "outputs": [
        {
          "internalType": "bool",
          "name": "",
          "type": "bool"
        }
      ],
      "stateMutability": "view",
      "type": "function"
    },
    {
      "inputs": [],
      "name": "name",
      "outputs": [
        {
          "internalType": "string",
          "name": "",
          "type": "string"
        }
      ],
      "stateMutability": "view",
      "type": "function"
    },
    {
      "inputs": [],
      "name": "owner",
      "outputs": [
        {
          "internalType": "address",
          "name": "",
          "type": "address"
        }
      ],
      "stateMutability": "view",
      "type": "function"
    },
    {
      "inputs": [
        {
          "internalType": "uint256",
          "name": "tokenId",
          "type": "uint256"
        }
      ],
      "name": "ownerOf",
      "outputs": [
        {
          "internalType": "address",
          "name": "",
          "type": "address"
        }
      ],
      "stateMutability": "view",
      "type": "function"
    },
    {
      "inputs": [],
      "name": "renounceOwnership",
      "outputs": [],
      "stateMutability": "nonpayable",
      "type": "function"
    },
    {
      "inputs": [
        {
          "internalType": "address",
          "name": "from",
          "type": "address"
        },
        {
          "internalType": "address",
          "name": "to",
          "type": "address"
        },
        {
          "internalType": "uint256",
          "name": "tokenId",
          "type": "uint256"
        }
      ],
      "name": "safeTransferFrom",
      "outputs": [],
      "stateMutability": "nonpayable",
      "type": "function"
    },
    {
      "inputs": [
        {
          "internalType": "address",
          "name": "from",
          "type": "address"
        },
        {
          "internalType": "address",
          "name": "to",
          "type": "address"
        },
        {
          "internalType": "uint256",
          "name": "tokenId",
          "type": "uint256"
        },
        {
          "internalType": "bytes",
          "name": "data",
          "type": "bytes"
        }
      ],
      "name": "safeTransferFrom",
      "outputs": [],
      "stateMutability": "nonpayable",
      "type": "function"
    },
    {
      "inputs": [
        {
          "internalType": "address",
          "name": "operator",
          "type": "address"
        },
        {
          "internalType": "bool",
          "name": "approved",
          "type": "bool"
        }
      ],
      "name": "setApprovalForAll",
      "outputs": [],
      "stateMutability": "nonpayable",
      "type": "function"
    },
    {
      "inputs": [
        {
          "internalType": "bytes4",
          "name": "interfaceId",
          "type": "bytes4"
        }
      ],
      "name": "supportsInterface",
      "outputs": [
        {
          "internalType": "bool",
          "name": "",
          "type": "bool"
        }
      ],
      "stateMutability": "view",
      "type": "function"
    },
    {
      "inputs": [],
      "name": "symbol",
      "outputs": [
        {
          "internalType": "string",
          "name": "",
          "type": "string"
        }
      ],
      "stateMutability": "view",
      "type": "function"
    },
    {
      "inputs": [
        {
          "internalType": "uint256",
          "name": "tokenId",
          "type": "uint256"
        }
      ],
      "name": "tokenURI",
      "outputs": [
        {
          "internalType": "string",
          "name": "",
          "type": "string"
        }
      ],
      "stateMutability": "view",
      "type": "function"
    },
    {
      "inputs": [
        {
          "internalType": "address",
          "name": "from",
          "type": "address"
        },
        {
          "internalType": "address",
          "name": "to",
          "type": "address"
        },
        {
          "internalType": "uint256",
          "name": "tokenId",
          "type": "uint256"
        }
      ],
      "name": "transferFrom",
      "outputs": [],
      "stateMutability": "nonpayable",
      "type": "function"
    },
    {
      "inputs": [
        {
          "internalType": "address",
          "name": "newOwner",
          "type": "address"
        }
      ],
      "name": "transferOwnership",
      "outputs": [],
      "stateMutability": "nonpayable",
      "type": "function"
    },
    {
      "inputs": [
        {
          "internalType": "uint256",
          "name": "_listPrice",
          "type": "uint256"
        }
      ],
      "name": "updateListPrice",
      "outputs": [],
      "stateMutability": "nonpayable",
      "type": "function"
    },
    {
      "stateMutability": "payable",
      "type": "receive"
    }
  ],
  "bytecode": "0x6080604052662386f26fc1000060085534801561001b57600080fd5b506040518060400160405280600e81526020017f4e46544d61726b6574706c6163650000000000000000000000000000000000008152506040518060400160405280600481526020017f4e46544d000000000000000000000000000000000000000000000000000000008152506100a46100996100cb60201b60201c565b6100d360201b60201c565b81600190816100b391906103e7565b5080600290816100c391906103e7565b5050506104b9565b600033905090565b60008060009054906101000a900473ffffffffffffffffffffffffffffffffffffffff169050816000806101000a81548173ffffffffffffffffffffffffffffffffffffffff021916908373ffffffffffffffffffffffffffffffffffffffff1602179055508173ffffffffffffffffffffffffffffffffffffffff168173ffffffffffffffffffffffffffffffffffffffff167f8be0079c531659141344cd1fd0a4f28419497f9722a3daafe3b4186f6b6457e060405160405180910390a35050565b600081519050919050565b7f4e487b7100000000000000000000000000000000000000000000000000000000600052604160045260246000fd5b7f4e487b7100000000000000000000000000000000000000000000000000000000600052602260045260246000fd5b6000600282049050600182168061021857607f821691505b60208210810361022b5761022a6101d1565b5b50919050565b60008190508160005260206000209050919050565b60006020601f8301049050919050565b600082821b905092915050565b6000600883026102937fffffffffffffffffffffffffffffffffffffffffffffffffffffffffffffffff82610256565b61029d8683610256565b95508019841693508086168417925050509392505050565b6000819050919050565b6000819050919050565b60006102e46102df6102da846102b5565b6102bf565b6102b5565b9050919050565b6000819050919050565b6102fe836102c9565b61031261030a826102eb565b848454610263565b825550505050565b600090565b61032761031a565b6103328184846102f5565b505050565b5b818110156103565761034b60008261031f565b600181019050610338565b5050565b601f82111561039b5761036c81610231565b61037584610246565b81016020851015610384578190505b61039861039085610246565b830182610337565b50505b505050565b600082821c905092915050565b60006103be600019846008026103a0565b1980831691505092915050565b60006103d783836103ad565b9150826002028217905092915050565b6103f082610197565b67ffffffffffffffff811115610409576104086101a2565b5b6104138254610200565b61041e82828561035a565b600060209050601f831160018114610451576000841561043f578287015190505b61044985826103cb565b8655506104b1565b601f19841661045f86610231565b60005b8281101561048757848901518255600182019150602085019450602081019050610462565b868310156104a457848901516104a0601f8916826103ad565b8355505b6001600288020188555050505b505050505050565b61430d806104c86000396000f3fe60806040526004361061016a5760003560e01c80638da5cb5b116100d1578063c322579c1161008a578063e0391b0911610064578063e0391b091461057d578063e985e9c5146105a8578063ef2d1746146105e5578063f2fde38b14610610576101af565b8063c322579c146104ec578063c87b56dd14610515578063d1a88ae514610552576101af565b80638da5cb5b146103eb5780638e2645901461041657806395d89b41146104535780639b1225c41461047e578063a22cb4651461049a578063b88d4fde146104c3576101af565b8063629cb2e411610123578063629cb2e4146102d45780636352211e146102ff57806368f1945f1461033c57806370a0823114610367578063715018a6146103a457806372b3b620146103bb576101af565b806301ffc9a7146101b457806306fdde03146101f1578063081812fc1461021c578063095ea7b31461025957806323b872dd1461028257806342842e0e146102ab576101af565b366101af576101ad6040518060400160405280600881526020017f66616c6c6261636b000000000000000000000000000000000000000000000000815250610639565b005b600080fd5b3480156101c057600080fd5b506101db60048036038101906101d69190612c4d565b6106d2565b6040516101e89190612c95565b60405180910390f35b3480156101fd57600080fd5b50610206610733565b6040516102139190612d40565b60405180910390f35b34801561022857600080fd5b50610243600480360381019061023e9190612d98565b6107c5565b6040516102509190612e06565b60405180910390f35b34801561026557600080fd5b50610280600480360381019061027b9190612e4d565b61080b565b005b34801561028e57600080fd5b506102a960048036038101906102a49190612e8d565b610922565b005b3480156102b757600080fd5b506102d260048036038101906102cd9190612e8d565b610982565b005b3480156102e057600080fd5b506102e96109a2565b6040516102f69190613036565b60405180910390f35b34801561030b57600080fd5b5061032660048036038101906103219190612d98565b610d67565b6040516103339190612e06565b60405180910390f35b34801561034857600080fd5b50610351610ded565b60405161035e9190613067565b60405180910390f35b34801561037357600080fd5b5061038e60048036038101906103899190613082565b610df7565b60405161039b9190613067565b60405180910390f35b3480156103b057600080fd5b506103b9610eae565b005b6103d560048036038101906103d091906131e4565b610ec2565b6040516103e29190613067565b60405180910390f35b3480156103f757600080fd5b50610400611101565b60405161040d9190612e06565b60405180910390f35b34801561042257600080fd5b5061043d60048036038101906104389190612d98565b61112a565b60405161044a91906132a8565b60405180910390f35b34801561045f57600080fd5b50610468611232565b6040516104759190612d40565b60405180910390f35b61049860048036038101906104939190612d98565b6112c4565b005b3480156104a657600080fd5b506104c160048036038101906104bc91906132ef565b611493565b005b3480156104cf57600080fd5b506104ea60048036038101906104e591906133d0565b6114a9565b005b3480156104f857600080fd5b50610513600480360381019061050e9190612d98565b61150b565b005b34801561052157600080fd5b5061053c60048036038101906105379190612d98565b61151d565b6040516105499190612d40565b60405180910390f35b34801561055e57600080fd5b5061056761162f565b6040516105749190613067565b60405180910390f35b34801561058957600080fd5b50610592611640565b60405161059f9190613036565b60405180910390f35b3480156105b457600080fd5b506105cf60048036038101906105ca9190613453565b6117ec565b6040516105dc9190612c95565b60405180910390f35b3480156105f157600080fd5b506105fa611880565b60405161060791906132a8565b60405180910390f35b34801561061c57600080fd5b5061063760048036038101906106329190613082565b61198f565b005b6106cf8160405160240161064d9190612d40565b6040516020818303038152906040527f41304fac000000000000000000000000000000000000000000000000000000007bffffffffffffffffffffffffffffffffffffffffffffffffffffffff19166020820180517bffffffffffffffffffffffffffffffffffffffffffffffffffffffff8381831617835250505050611a12565b50565b6000634906490660e01b7bffffffffffffffffffffffffffffffffffffffffffffffffffffffff1916827bffffffffffffffffffffffffffffffffffffffffffffffffffffffff1916148061072c575061072b82611a2c565b5b9050919050565b606060018054610742906134c2565b80601f016020809104026020016040519081016040528092919081815260200182805461076e906134c2565b80156107bb5780601f10610790576101008083540402835291602001916107bb565b820191906000526020600020905b81548152906001019060200180831161079e57829003601f168201915b5050505050905090565b60006107d082611b0e565b6005600083815260200190815260200160002060009054906101000a900473ffffffffffffffffffffffffffffffffffffffff169050919050565b600061081682610d67565b90508073ffffffffffffffffffffffffffffffffffffffff168373ffffffffffffffffffffffffffffffffffffffff1603610886576040517f08c379a000000000000000000000000000000000000000000000000000000000815260040161087d90613565565b60405180910390fd5b8073ffffffffffffffffffffffffffffffffffffffff166108a5611b59565b73ffffffffffffffffffffffffffffffffffffffff1614806108d457506108d3816108ce611b59565b6117ec565b5b610913576040517f08c379a000000000000000000000000000000000000000000000000000000000815260040161090a906135f7565b60405180910390fd5b61091d8383611b61565b505050565b61093361092d611b59565b82611c1a565b610972576040517f08c379a000000000000000000000000000000000000000000000000000000000815260040161096990613689565b60405180910390fd5b61097d838383611caf565b505050565b61099d838383604051806020016040528060008152506114a9565b505050565b606060006109b06009611fa8565b90506000805b82811015610ac9573373ffffffffffffffffffffffffffffffffffffffff16600b60006001846109e691906136d8565b815260200190815260200160002060010160009054906101000a900473ffffffffffffffffffffffffffffffffffffffff1673ffffffffffffffffffffffffffffffffffffffff161480610aa757503373ffffffffffffffffffffffffffffffffffffffff16600b6000600184610a5d91906136d8565b815260200190815260200160002060020160009054906101000a900473ffffffffffffffffffffffffffffffffffffffff1673ffffffffffffffffffffffffffffffffffffffff16145b15610abc57600182610ab991906136d8565b91505b80806001019150506109b6565b5060008167ffffffffffffffff811115610ae657610ae56130b9565b5b604051908082528060200260200182016040528015610b1f57816020015b610b0c612b7a565b815260200190600190039081610b045790505b5090506000805b84811015610d5c573373ffffffffffffffffffffffffffffffffffffffff16600b6000600184610b5691906136d8565b815260200190815260200160002060010160009054906101000a900473ffffffffffffffffffffffffffffffffffffffff1673ffffffffffffffffffffffffffffffffffffffff161480610c1757503373ffffffffffffffffffffffffffffffffffffffff16600b6000600184610bcd91906136d8565b815260200190815260200160002060020160009054906101000a900473ffffffffffffffffffffffffffffffffffffffff1673ffffffffffffffffffffffffffffffffffffffff16145b15610d4f57600b6000600183610c2d91906136d8565b81526020019081526020016000206040518060a0016040529081600082015481526020016001820160009054906101000a900473ffffffffffffffffffffffffffffffffffffffff1673ffffffffffffffffffffffffffffffffffffffff1673ffffffffffffffffffffffffffffffffffffffff1681526020016002820160009054906101000a900473ffffffffffffffffffffffffffffffffffffffff1673ffffffffffffffffffffffffffffffffffffffff1673ffffffffffffffffffffffffffffffffffffffff168152602001600382015481526020016004820160009054906101000a900460ff161515151581525050838381518110610d3457610d3361370c565b5b6020026020010181905250600182610d4c91906136d8565b91505b8080600101915050610b26565b508194505050505090565b600080610d7383611fb6565b9050600073ffffffffffffffffffffffffffffffffffffffff168173ffffffffffffffffffffffffffffffffffffffff1603610de4576040517f08c379a0000000000000000000000000000000000000000000000000000000008152600401610ddb90613787565b60405180910390fd5b80915050919050565b6000600854905090565b60008073ffffffffffffffffffffffffffffffffffffffff168273ffffffffffffffffffffffffffffffffffffffff1603610e67576040517f08c379a0000000000000000000000000000000000000000000000000000000008152600401610e5e90613819565b60405180910390fd5b600460008373ffffffffffffffffffffffffffffffffffffffff1673ffffffffffffffffffffffffffffffffffffffff168152602001908152602001600020549050919050565b610eb6611ff3565b610ec06000612071565b565b6000808211610f06576040517f08c379a0000000000000000000000000000000000000000000000000000000008152600401610efd90613885565b60405180910390fd5b6008543414610f4a576040517f08c379a0000000000000000000000000000000000000000000000000000000008152600401610f41906138f1565b60405180910390fd5b610f546009612135565b6000610f606009611fa8565b9050610f6c338261214b565b610f768185612169565b6040518060a001604052808281526020013073ffffffffffffffffffffffffffffffffffffffff1681526020013373ffffffffffffffffffffffffffffffffffffffff16815260200184815260200160011515815250600b60008381526020019081526020016000206000820151816000015560208201518160010160006101000a81548173ffffffffffffffffffffffffffffffffffffffff021916908373ffffffffffffffffffffffffffffffffffffffff16021790555060408201518160020160006101000a81548173ffffffffffffffffffffffffffffffffffffffff021916908373ffffffffffffffffffffffffffffffffffffffff1602179055506060820151816003015560808201518160040160006101000a81548160ff0219169083151502179055509050506110af333083611caf565b807f9339409317fd01fabff48b703019016f49159bacc801ae872d2ca637d226e4c030338660016040516110e69493929190613911565b60405180910390a26110f86009611fa8565b91505092915050565b60008060009054906101000a900473ffffffffffffffffffffffffffffffffffffffff16905090565b611132612b7a565b600b60008381526020019081526020016000206040518060a0016040529081600082015481526020016001820160009054906101000a900473ffffffffffffffffffffffffffffffffffffffff1673ffffffffffffffffffffffffffffffffffffffff1673ffffffffffffffffffffffffffffffffffffffff1681526020016002820160009054906101000a900473ffffffffffffffffffffffffffffffffffffffff1673ffffffffffffffffffffffffffffffffffffffff1673ffffffffffffffffffffffffffffffffffffffff168152602001600382015481526020016004820160009054906101000a900460ff1615151515815250509050919050565b606060028054611241906134c2565b80601f016020809104026020016040519081016040528092919081815260200182805461126d906134c2565b80156112ba5780601f1061128f576101008083540402835291602001916112ba565b820191906000526020600020905b81548152906001019060200180831161129d57829003601f168201915b5050505050905090565b6000600b600083815260200190815260200160002090508060040160009054906101000a900460ff1661132c576040517f08c379a0000000000000000000000000000000000000000000000000000000008152600401611323906139a2565b60405180910390fd5b80600301543414611372576040517f08c379a000000000000000000000000000000000000000000000000000000000815260040161136990613a0e565b60405180910390fd5b60008160020160009054906101000a900473ffffffffffffffffffffffffffffffffffffffff169050338260020160006101000a81548173ffffffffffffffffffffffffffffffffffffffff021916908373ffffffffffffffffffffffffffffffffffffffff1602179055506113e9303385611caf565b8073ffffffffffffffffffffffffffffffffffffffff166108fc83600301549081150290604051600060405180830381858888f19350505050158015611433573d6000803e3d6000fd5b5061143c611101565b73ffffffffffffffffffffffffffffffffffffffff166108fc6008549081150290604051600060405180830381858888f19350505050158015611483573d6000803e3d6000fd5b5061148e600a612135565b505050565b6114a561149e611b59565b838361220d565b5050565b6114ba6114b4611b59565b83611c1a565b6114f9576040517f08c379a00000000000000000000000000000000000000000000000000000000081526004016114f090613689565b60405180910390fd5b61150584848484612379565b50505050565b611513611ff3565b8060088190555050565b606061152882611b0e565b6000600760008481526020019081526020016000208054611548906134c2565b80601f0160208091040260200160405190810160405280929190818152602001828054611574906134c2565b80156115c15780601f10611596576101008083540402835291602001916115c1565b820191906000526020600020905b8154815290600101906020018083116115a457829003601f168201915b5050505050905060006115d26123d5565b905060008151036115e757819250505061162a565b60008251111561161c578082604051602001611604929190613a6a565b6040516020818303038152906040529250505061162a565b611625846123ec565b925050505b919050565b600061163b6009611fa8565b905090565b6060600061164e6009611fa8565b905060008167ffffffffffffffff81111561166c5761166b6130b9565b5b6040519080825280602002602001820160405280156116a557816020015b611692612b7a565b81526020019060019003908161168a5790505b50905060005b828110156117e357600b60006001836116c491906136d8565b81526020019081526020016000206040518060a0016040529081600082015481526020016001820160009054906101000a900473ffffffffffffffffffffffffffffffffffffffff1673ffffffffffffffffffffffffffffffffffffffff1673ffffffffffffffffffffffffffffffffffffffff1681526020016002820160009054906101000a900473ffffffffffffffffffffffffffffffffffffffff1673ffffffffffffffffffffffffffffffffffffffff1673ffffffffffffffffffffffffffffffffffffffff168152602001600382015481526020016004820160009054906101000a900460ff1615151515815250508282815181106117cb576117ca61370c565b5b602002602001018190525080806001019150506116ab565b50809250505090565b6000600660008473ffffffffffffffffffffffffffffffffffffffff1673ffffffffffffffffffffffffffffffffffffffff16815260200190815260200160002060008373ffffffffffffffffffffffffffffffffffffffff1673ffffffffffffffffffffffffffffffffffffffff16815260200190815260200160002060009054906101000a900460ff16905092915050565b611888612b7a565b600b60006118966009611fa8565b81526020019081526020016000206040518060a0016040529081600082015481526020016001820160009054906101000a900473ffffffffffffffffffffffffffffffffffffffff1673ffffffffffffffffffffffffffffffffffffffff1673ffffffffffffffffffffffffffffffffffffffff1681526020016002820160009054906101000a900473ffffffffffffffffffffffffffffffffffffffff1673ffffffffffffffffffffffffffffffffffffffff1673ffffffffffffffffffffffffffffffffffffffff168152602001600382015481526020016004820160009054906101000a900460ff161515151581525050905090565b611997611ff3565b600073ffffffffffffffffffffffffffffffffffffffff168173ffffffffffffffffffffffffffffffffffffffff1603611a06576040517f08c379a00000000000000000000000000000000000000000000000000000000081526004016119fd90613b00565b60405180910390fd5b611a0f81612071565b50565b611a2981611a21612454612475565b63ffffffff16565b50565b60007f80ac58cd000000000000000000000000000000000000000000000000000000007bffffffffffffffffffffffffffffffffffffffffffffffffffffffff1916827bffffffffffffffffffffffffffffffffffffffffffffffffffffffff19161480611af757507f5b5e139f000000000000000000000000000000000000000000000000000000007bffffffffffffffffffffffffffffffffffffffffffffffffffffffff1916827bffffffffffffffffffffffffffffffffffffffffffffffffffffffff1916145b80611b075750611b0682612480565b5b9050919050565b611b17816124ea565b611b56576040517f08c379a0000000000000000000000000000000000000000000000000000000008152600401611b4d90613787565b60405180910390fd5b50565b600033905090565b816005600083815260200190815260200160002060006101000a81548173ffffffffffffffffffffffffffffffffffffffff021916908373ffffffffffffffffffffffffffffffffffffffff160217905550808273ffffffffffffffffffffffffffffffffffffffff16611bd483610d67565b73ffffffffffffffffffffffffffffffffffffffff167f8c5be1e5ebec7d5bd14f71427d1e84f3dd0314c0f7b2291e5b200ac8c7c3b92560405160405180910390a45050565b600080611c2683610d67565b90508073ffffffffffffffffffffffffffffffffffffffff168473ffffffffffffffffffffffffffffffffffffffff161480611c685750611c6781856117ec565b5b80611ca657508373ffffffffffffffffffffffffffffffffffffffff16611c8e846107c5565b73ffffffffffffffffffffffffffffffffffffffff16145b91505092915050565b8273ffffffffffffffffffffffffffffffffffffffff16611ccf82610d67565b73ffffffffffffffffffffffffffffffffffffffff1614611d25576040517f08c379a0000000000000000000000000000000000000000000000000000000008152600401611d1c90613b92565b60405180910390fd5b600073ffffffffffffffffffffffffffffffffffffffff168273ffffffffffffffffffffffffffffffffffffffff1603611d94576040517f08c379a0000000000000000000000000000000000000000000000000000000008152600401611d8b90613c24565b60405180910390fd5b611da1838383600161252b565b8273ffffffffffffffffffffffffffffffffffffffff16611dc182610d67565b73ffffffffffffffffffffffffffffffffffffffff1614611e17576040517f08c379a0000000000000000000000000000000000000000000000000000000008152600401611e0e90613b92565b60405180910390fd5b6005600082815260200190815260200160002060006101000a81549073ffffffffffffffffffffffffffffffffffffffff02191690556001600460008573ffffffffffffffffffffffffffffffffffffffff1673ffffffffffffffffffffffffffffffffffffffff168152602001908152602001600020600082825403925050819055506001600460008473ffffffffffffffffffffffffffffffffffffffff1673ffffffffffffffffffffffffffffffffffffffff16815260200190815260200160002060008282540192505081905550816003600083815260200190815260200160002060006101000a81548173ffffffffffffffffffffffffffffffffffffffff021916908373ffffffffffffffffffffffffffffffffffffffff160217905550808273ffffffffffffffffffffffffffffffffffffffff168473ffffffffffffffffffffffffffffffffffffffff167fddf252ad1be2c89b69c2b068fc378daa952ba7f163c4a11628f55a4df523b3ef60405160405180910390a4611fa38383836001612531565b505050565b600081600001549050919050565b60006003600083815260200190815260200160002060009054906101000a900473ffffffffffffffffffffffffffffffffffffffff169050919050565b611ffb611b59565b73ffffffffffffffffffffffffffffffffffffffff16612019611101565b73ffffffffffffffffffffffffffffffffffffffff161461206f576040517f08c379a000000000000000000000000000000000000000000000000000000000815260040161206690613c90565b60405180910390fd5b565b60008060009054906101000a900473ffffffffffffffffffffffffffffffffffffffff169050816000806101000a81548173ffffffffffffffffffffffffffffffffffffffff021916908373ffffffffffffffffffffffffffffffffffffffff1602179055508173ffffffffffffffffffffffffffffffffffffffff168173ffffffffffffffffffffffffffffffffffffffff167f8be0079c531659141344cd1fd0a4f28419497f9722a3daafe3b4186f6b6457e060405160405180910390a35050565b6001816000016000828254019250508190555050565b612165828260405180602001604052806000815250612537565b5050565b612172826124ea565b6121b1576040517f08c379a00000000000000000000000000000000000000000000000000000000081526004016121a890613d22565b60405180910390fd5b806007600084815260200190815260200160002090816121d19190613eee565b507ff8e1a15aba9398e019f0b49df1a4fde98ee17ae345cb5f6b5e2c27f5033e8ce7826040516122019190613067565b60405180910390a15050565b8173ffffffffffffffffffffffffffffffffffffffff168373ffffffffffffffffffffffffffffffffffffffff160361227b576040517f08c379a00000000000000000000000000000000000000000000000000000000081526004016122729061400c565b60405180910390fd5b80600660008573ffffffffffffffffffffffffffffffffffffffff1673ffffffffffffffffffffffffffffffffffffffff16815260200190815260200160002060008473ffffffffffffffffffffffffffffffffffffffff1673ffffffffffffffffffffffffffffffffffffffff16815260200190815260200160002060006101000a81548160ff0219169083151502179055508173ffffffffffffffffffffffffffffffffffffffff168373ffffffffffffffffffffffffffffffffffffffff167f17307eab39ab6107e8899845ad3d59bd9653f200f220920489ca2b5937696c318360405161236c9190612c95565b60405180910390a3505050565b612384848484611caf565b61239084848484612592565b6123cf576040517f08c379a00000000000000000000000000000000000000000000000000000000081526004016123c69061409e565b60405180910390fd5b50505050565b606060405180602001604052806000815250905090565b60606123f782611b0e565b60006124016123d5565b90506000815111612421576040518060200160405280600081525061244c565b8061242b84612719565b60405160200161243c929190613a6a565b6040516020818303038152906040525b915050919050565b60006a636f6e736f6c652e6c6f679050600080835160208501845afa505050565b612bd7819050919050565b60007f01ffc9a7000000000000000000000000000000000000000000000000000000007bffffffffffffffffffffffffffffffffffffffffffffffffffffffff1916827bffffffffffffffffffffffffffffffffffffffffffffffffffffffff1916149050919050565b60008073ffffffffffffffffffffffffffffffffffffffff1661250c83611fb6565b73ffffffffffffffffffffffffffffffffffffffff1614159050919050565b50505050565b50505050565b61254183836127e7565b61254e6000848484612592565b61258d576040517f08c379a00000000000000000000000000000000000000000000000000000000081526004016125849061409e565b60405180910390fd5b505050565b60006125b38473ffffffffffffffffffffffffffffffffffffffff16612a04565b1561270c578373ffffffffffffffffffffffffffffffffffffffff1663150b7a026125dc611b59565b8786866040518563ffffffff1660e01b81526004016125fe9493929190614113565b6020604051808303816000875af192505050801561263a57506040513d601f19601f820116820180604052508101906126379190614174565b60015b6126bc573d806000811461266a576040519150601f19603f3d011682016040523d82523d6000602084013e61266f565b606091505b5060008151036126b4576040517f08c379a00000000000000000000000000000000000000000000000000000000081526004016126ab9061409e565b60405180910390fd5b805181602001fd5b63150b7a0260e01b7bffffffffffffffffffffffffffffffffffffffffffffffffffffffff1916817bffffffffffffffffffffffffffffffffffffffffffffffffffffffff191614915050612711565b600190505b949350505050565b60606000600161272884612a27565b01905060008167ffffffffffffffff811115612747576127466130b9565b5b6040519080825280601f01601f1916602001820160405280156127795781602001600182028036833780820191505090505b509050600082602001820190505b6001156127dc578080600190039150507f3031323334353637383961626364656600000000000000000000000000000000600a86061a8153600a85816127d0576127cf6141a1565b5b04945060008503612787575b819350505050919050565b600073ffffffffffffffffffffffffffffffffffffffff168273ffffffffffffffffffffffffffffffffffffffff1603612856576040517f08c379a000000000000000000000000000000000000000000000000000000000815260040161284d9061421c565b60405180910390fd5b61285f816124ea565b1561289f576040517f08c379a000000000000000000000000000000000000000000000000000000000815260040161289690614288565b60405180910390fd5b6128ad60008383600161252b565b6128b6816124ea565b156128f6576040517f08c379a00000000000000000000000000000000000000000000000000000000081526004016128ed90614288565b60405180910390fd5b6001600460008473ffffffffffffffffffffffffffffffffffffffff1673ffffffffffffffffffffffffffffffffffffffff16815260200190815260200160002060008282540192505081905550816003600083815260200190815260200160002060006101000a81548173ffffffffffffffffffffffffffffffffffffffff021916908373ffffffffffffffffffffffffffffffffffffffff160217905550808273ffffffffffffffffffffffffffffffffffffffff16600073ffffffffffffffffffffffffffffffffffffffff167fddf252ad1be2c89b69c2b068fc378daa952ba7f163c4a11628f55a4df523b3ef60405160405180910390a4612a00600083836001612531565b5050565b6000808273ffffffffffffffffffffffffffffffffffffffff163b119050919050565b600080600090507a184f03e93ff9f4daa797ed6e38ed64bf6a1f0100000000000000008310612a85577a184f03e93ff9f4daa797ed6e38ed64bf6a1f0100000000000000008381612a7b57612a7a6141a1565b5b0492506040810190505b6d04ee2d6d415b85acef81000000008310612ac2576d04ee2d6d415b85acef81000000008381612ab857612ab76141a1565b5b0492506020810190505b662386f26fc100008310612af157662386f26fc100008381612ae757612ae66141a1565b5b0492506010810190505b6305f5e1008310612b1a576305f5e1008381612b1057612b0f6141a1565b5b0492506008810190505b6127108310612b3f576127108381612b3557612b346141a1565b5b0492506004810190505b60648310612b625760648381612b5857612b576141a1565b5b0492506002810190505b600a8310612b71576001810190505b80915050919050565b6040518060a0016040528060008152602001600073ffffffffffffffffffffffffffffffffffffffff168152602001600073ffffffffffffffffffffffffffffffffffffffff168152602001600081526020016000151581525090565b612bdf6142a8565b565b6000604051905090565b600080fd5b600080fd5b60007fffffffff0000000000000000000000000000000000000000000000000000000082169050919050565b612c2a81612bf5565b8114612c3557600080fd5b50565b600081359050612c4781612c21565b92915050565b600060208284031215612c6357612c62612beb565b5b6000612c7184828501612c38565b91505092915050565b60008115159050919050565b612c8f81612c7a565b82525050565b6000602082019050612caa6000830184612c86565b92915050565b600081519050919050565b600082825260208201905092915050565b60005b83811015612cea578082015181840152602081019050612ccf565b60008484015250505050565b6000601f19601f8301169050919050565b6000612d1282612cb0565b612d1c8185612cbb565b9350612d2c818560208601612ccc565b612d3581612cf6565b840191505092915050565b60006020820190508181036000830152612d5a8184612d07565b905092915050565b6000819050919050565b612d7581612d62565b8114612d8057600080fd5b50565b600081359050612d9281612d6c565b92915050565b600060208284031215612dae57612dad612beb565b5b6000612dbc84828501612d83565b91505092915050565b600073ffffffffffffffffffffffffffffffffffffffff82169050919050565b6000612df082612dc5565b9050919050565b612e0081612de5565b82525050565b6000602082019050612e1b6000830184612df7565b92915050565b612e2a81612de5565b8114612e3557600080fd5b50565b600081359050612e4781612e21565b92915050565b60008060408385031215612e6457612e63612beb565b5b6000612e7285828601612e38565b9250506020612e8385828601612d83565b9150509250929050565b600080600060608486031215612ea657612ea5612beb565b5b6000612eb486828701612e38565b9350506020612ec586828701612e38565b9250506040612ed686828701612d83565b9150509250925092565b600081519050919050565b600082825260208201905092915050565b6000819050602082019050919050565b612f1581612d62565b82525050565b6000612f2682612dc5565b9050919050565b612f3681612f1b565b82525050565b612f4581612c7a565b82525050565b60a082016000820151612f616000850182612f0c565b506020820151612f746020850182612f2d565b506040820151612f876040850182612f2d565b506060820151612f9a6060850182612f0c565b506080820151612fad6080850182612f3c565b50505050565b6000612fbf8383612f4b565b60a08301905092915050565b6000602082019050919050565b6000612fe382612ee0565b612fed8185612eeb565b9350612ff883612efc565b8060005b838110156130295781516130108882612fb3565b975061301b83612fcb565b925050600181019050612ffc565b5085935050505092915050565b600060208201905081810360008301526130508184612fd8565b905092915050565b61306181612d62565b82525050565b600060208201905061307c6000830184613058565b92915050565b60006020828403121561309857613097612beb565b5b60006130a684828501612e38565b91505092915050565b600080fd5b600080fd5b7f4e487b7100000000000000000000000000000000000000000000000000000000600052604160045260246000fd5b6130f182612cf6565b810181811067ffffffffffffffff821117156131105761310f6130b9565b5b80604052505050565b6000613123612be1565b905061312f82826130e8565b919050565b600067ffffffffffffffff82111561314f5761314e6130b9565b5b61315882612cf6565b9050602081019050919050565b82818337600083830152505050565b600061318761318284613134565b613119565b9050828152602081018484840111156131a3576131a26130b4565b5b6131ae848285613165565b509392505050565b600082601f8301126131cb576131ca6130af565b5b81356131db848260208601613174565b91505092915050565b600080604083850312156131fb576131fa612beb565b5b600083013567ffffffffffffffff81111561321957613218612bf0565b5b613225858286016131b6565b925050602061323685828601612d83565b9150509250929050565b60a0820160008201516132566000850182612f0c565b5060208201516132696020850182612f2d565b50604082015161327c6040850182612f2d565b50606082015161328f6060850182612f0c565b5060808201516132a26080850182612f3c565b50505050565b600060a0820190506132bd6000830184613240565b92915050565b6132cc81612c7a565b81146132d757600080fd5b50565b6000813590506132e9816132c3565b92915050565b6000806040838503121561330657613305612beb565b5b600061331485828601612e38565b9250506020613325858286016132da565b9150509250929050565b600067ffffffffffffffff82111561334a576133496130b9565b5b61335382612cf6565b9050602081019050919050565b600061337361336e8461332f565b613119565b90508281526020810184848401111561338f5761338e6130b4565b5b61339a848285613165565b509392505050565b600082601f8301126133b7576133b66130af565b5b81356133c7848260208601613360565b91505092915050565b600080600080608085870312156133ea576133e9612beb565b5b60006133f887828801612e38565b945050602061340987828801612e38565b935050604061341a87828801612d83565b925050606085013567ffffffffffffffff81111561343b5761343a612bf0565b5b613447878288016133a2565b91505092959194509250565b6000806040838503121561346a57613469612beb565b5b600061347885828601612e38565b925050602061348985828601612e38565b9150509250929050565b7f4e487b7100000000000000000000000000000000000000000000000000000000600052602260045260246000fd5b600060028204905060018216806134da57607f821691505b6020821081036134ed576134ec613493565b5b50919050565b7f4552433732313a20617070726f76616c20746f2063757272656e74206f776e6560008201527f7200000000000000000000000000000000000000000000000000000000000000602082015250565b600061354f602183612cbb565b915061355a826134f3565b604082019050919050565b6000602082019050818103600083015261357e81613542565b9050919050565b7f4552433732313a20617070726f76652063616c6c6572206973206e6f7420746f60008201527f6b656e206f776e6572206f7220617070726f76656420666f7220616c6c000000602082015250565b60006135e1603d83612cbb565b91506135ec82613585565b604082019050919050565b60006020820190508181036000830152613610816135d4565b9050919050565b7f4552433732313a2063616c6c6572206973206e6f7420746f6b656e206f776e6560008201527f72206f7220617070726f76656400000000000000000000000000000000000000602082015250565b6000613673602d83612cbb565b915061367e82613617565b604082019050919050565b600060208201905081810360008301526136a281613666565b9050919050565b7f4e487b7100000000000000000000000000000000000000000000000000000000600052601160045260246000fd5b60006136e382612d62565b91506136ee83612d62565b9250828201905080821115613706576137056136a9565b5b92915050565b7f4e487b7100000000000000000000000000000000000000000000000000000000600052603260045260246000fd5b7f4552433732313a20696e76616c696420746f6b656e2049440000000000000000600082015250565b6000613771601883612cbb565b915061377c8261373b565b602082019050919050565b600060208201905081810360008301526137a081613764565b9050919050565b7f4552433732313a2061646472657373207a65726f206973206e6f74206120766160008201527f6c6964206f776e65720000000000000000000000000000000000000000000000602082015250565b6000613803602983612cbb565b915061380e826137a7565b604082019050919050565b60006020820190508181036000830152613832816137f6565b9050919050565b7f7072696365206d7573742067726561746572207468616e207a65726f00000000600082015250565b600061386f601c83612cbb565b915061387a82613839565b602082019050919050565b6000602082019050818103600083015261389e81613862565b9050919050565b7f6e6565642073656e6420656e6f756768206c6973742070726963650000000000600082015250565b60006138db601b83612cbb565b91506138e6826138a5565b602082019050919050565b6000602082019050818103600083015261390a816138ce565b9050919050565b60006080820190506139266000830187612df7565b6139336020830186612df7565b6139406040830185613058565b61394d6060830184612c86565b95945050505050565b7f6e6674206d757374206c69737465640000000000000000000000000000000000600082015250565b600061398c600f83612cbb565b915061399782613956565b602082019050919050565b600060208201905081810360008301526139bb8161397f565b9050919050565b7f7072696365206e6f7420656e6f75676800000000000000000000000000000000600082015250565b60006139f8601083612cbb565b9150613a03826139c2565b602082019050919050565b60006020820190508181036000830152613a27816139eb565b9050919050565b600081905092915050565b6000613a4482612cb0565b613a4e8185613a2e565b9350613a5e818560208601612ccc565b80840191505092915050565b6000613a768285613a39565b9150613a828284613a39565b91508190509392505050565b7f4f776e61626c653a206e6577206f776e657220697320746865207a65726f206160008201527f6464726573730000000000000000000000000000000000000000000000000000602082015250565b6000613aea602683612cbb565b9150613af582613a8e565b604082019050919050565b60006020820190508181036000830152613b1981613add565b9050919050565b7f4552433732313a207472616e736665722066726f6d20696e636f72726563742060008201527f6f776e6572000000000000000000000000000000000000000000000000000000602082015250565b6000613b7c602583612cbb565b9150613b8782613b20565b604082019050919050565b60006020820190508181036000830152613bab81613b6f565b9050919050565b7f4552433732313a207472616e7366657220746f20746865207a65726f2061646460008201527f7265737300000000000000000000000000000000000000000000000000000000602082015250565b6000613c0e602483612cbb565b9150613c1982613bb2565b604082019050919050565b60006020820190508181036000830152613c3d81613c01565b9050919050565b7f4f776e61626c653a2063616c6c6572206973206e6f7420746865206f776e6572600082015250565b6000613c7a602083612cbb565b9150613c8582613c44565b602082019050919050565b60006020820190508181036000830152613ca981613c6d565b9050919050565b7f45524337323155524953746f726167653a2055524920736574206f66206e6f6e60008201527f6578697374656e7420746f6b656e000000000000000000000000000000000000602082015250565b6000613d0c602e83612cbb565b9150613d1782613cb0565b604082019050919050565b60006020820190508181036000830152613d3b81613cff565b9050919050565b60008190508160005260206000209050919050565b60006020601f8301049050919050565b600082821b905092915050565b600060088302613da47fffffffffffffffffffffffffffffffffffffffffffffffffffffffffffffffff82613d67565b613dae8683613d67565b95508019841693508086168417925050509392505050565b6000819050919050565b6000613deb613de6613de184612d62565b613dc6565b612d62565b9050919050565b6000819050919050565b613e0583613dd0565b613e19613e1182613df2565b848454613d74565b825550505050565b600090565b613e2e613e21565b613e39818484613dfc565b505050565b5b81811015613e5d57613e52600082613e26565b600181019050613e3f565b5050565b601f821115613ea257613e7381613d42565b613e7c84613d57565b81016020851015613e8b578190505b613e9f613e9785613d57565b830182613e3e565b50505b505050565b600082821c905092915050565b6000613ec560001984600802613ea7565b1980831691505092915050565b6000613ede8383613eb4565b9150826002028217905092915050565b613ef782612cb0565b67ffffffffffffffff811115613f1057613f0f6130b9565b5b613f1a82546134c2565b613f25828285613e61565b600060209050601f831160018114613f585760008415613f46578287015190505b613f508582613ed2565b865550613fb8565b601f198416613f6686613d42565b60005b82811015613f8e57848901518255600182019150602085019450602081019050613f69565b86831015613fab5784890151613fa7601f891682613eb4565b8355505b6001600288020188555050505b505050505050565b7f4552433732313a20617070726f766520746f2063616c6c657200000000000000600082015250565b6000613ff6601983612cbb565b915061400182613fc0565b602082019050919050565b6000602082019050818103600083015261402581613fe9565b9050919050565b7f4552433732313a207472616e7366657220746f206e6f6e20455243373231526560008201527f63656976657220696d706c656d656e7465720000000000000000000000000000602082015250565b6000614088603283612cbb565b91506140938261402c565b604082019050919050565b600060208201905081810360008301526140b78161407b565b9050919050565b600081519050919050565b600082825260208201905092915050565b60006140e5826140be565b6140ef81856140c9565b93506140ff818560208601612ccc565b61410881612cf6565b840191505092915050565b60006080820190506141286000830187612df7565b6141356020830186612df7565b6141426040830185613058565b818103606083015261415481846140da565b905095945050505050565b60008151905061416e81612c21565b92915050565b60006020828403121561418a57614189612beb565b5b60006141988482850161415f565b91505092915050565b7f4e487b7100000000000000000000000000000000000000000000000000000000600052601260045260246000fd5b7f4552433732313a206d696e7420746f20746865207a65726f2061646472657373600082015250565b6000614206602083612cbb565b9150614211826141d0565b602082019050919050565b60006020820190508181036000830152614235816141f9565b9050919050565b7f4552433732313a20746f6b656e20616c7265616479206d696e74656400000000600082015250565b6000614272601c83612cbb565b915061427d8261423c565b602082019050919050565b600060208201905081810360008301526142a181614265565b9050919050565b7f4e487b7100000000000000000000000000000000000000000000000000000000600052605160045260246000fdfea2646970667358221220dfa8630139ee68549da924272ecdda8bd92ab475e3cec72fba5cca3ed630d9e064736f6c634300081a0033",
  "linkReferences": {},
  "deployedLinkReferences": {}
}